{
  "contractName": "FlashLoan",
  "abi": [
    {
      "inputs": [],
      "stateMutability": "nonpayable",
      "type": "constructor"
    },
    {
      "inputs": [],
      "name": "getOwner",
      "outputs": [
        {
          "internalType": "address",
          "name": "",
          "type": "address"
        }
      ],
      "stateMutability": "view",
      "type": "function"
    }
  ],
  "bytecode": "0x608060405234801561001057600080fd5b50336000806101000a81548173ffffffffffffffffffffffffffffffffffffffff021916908373ffffffffffffffffffffffffffffffffffffffff160217905550610214806100606000396000f3fe608060405234801561001057600080fd5b506004361061002b5760003560e01c8063893d20e814610030575b600080fd5b61003861004e565b6040516100459190610146565b60405180910390f35b60008060009054906101000a900473ffffffffffffffffffffffffffffffffffffffff1673ffffffffffffffffffffffffffffffffffffffff163373ffffffffffffffffffffffffffffffffffffffff16146100df576040517f08c379a00000000000000000000000000000000000000000000000000000000081526004016100d6906101be565b60405180910390fd5b60008054906101000a900473ffffffffffffffffffffffffffffffffffffffff16905090565b600073ffffffffffffffffffffffffffffffffffffffff82169050919050565b600061013082610105565b9050919050565b61014081610125565b82525050565b600060208201905061015b6000830184610137565b92915050565b600082825260208201905092915050565b7f6f6e6c79206f776e657220616c6c6f7765640000000000000000000000000000600082015250565b60006101a8601283610161565b91506101b382610172565b602082019050919050565b600060208201905081810360008301526101d78161019b565b905091905056fea2646970667358221220a97156a749ff0406c7cd5447c89d7ae314b70607eaf54163af1351f519312a3e64736f6c634300080a0033",
  "immutableReferences": {},
  "source": "// SPDX-License-Identifier: MIT\npragma solidity ^0.8.7;\n\ncontract FlashLoan {\n    // State variable for smart contract owner\n    address internal owner;\n\n    constructor() {\n        // Set contract owner the contract deployer\n        owner = msg.sender;\n    }\n\n    // Function modifier as RBAC policy - ownly contract owner can perform action\n    modifier onlyOwner() {\n        require(msg.sender == owner, \"only owner allowed\");\n        _;\n    }\n\n    // Function to retrieve contract owner (can be called only by contract owner)\n    function getOwner() public view onlyOwner returns (address) {\n        return owner;\n    }\n}\n",
  "sourcePath": "/Users/andrei/Desktop/Projects/goat-eth-sc1/contracts/FlashLoan.sol",
  "compiler": {
    "name": "solc",
    "version": "0.8.10+commit.fc410830.Emscripten.clang"
  },
  "schemaVersion": "3.4.3",
  "updatedAt": "2021-12-02T04:21:49.353Z",
  "devdoc": {
    "kind": "dev",
    "methods": {},
    "version": 1
  },
  "userdoc": {
    "kind": "user",
    "methods": {},
    "version": 1
  }
}